{
  "_format": "hh-sol-artifact-1",
  "contractName": "SikhDoodles",
  "sourceName": "contracts/SikhDoodles.sol",
  "abi": [
    {
      "inputs": [],
      "stateMutability": "payable",
      "type": "constructor"
    },
    {
      "anonymous": false,
      "inputs": [
        {
          "indexed": true,
          "internalType": "address",
          "name": "owner",
          "type": "address"
        },
        {
          "indexed": true,
          "internalType": "address",
          "name": "approved",
          "type": "address"
        },
        {
          "indexed": true,
          "internalType": "uint256",
          "name": "tokenId",
          "type": "uint256"
        }
      ],
      "name": "Approval",
      "type": "event"
    },
    {
      "anonymous": false,
      "inputs": [
        {
          "indexed": true,
          "internalType": "address",
          "name": "owner",
          "type": "address"
        },
        {
          "indexed": true,
          "internalType": "address",
          "name": "operator",
          "type": "address"
        },
        {
          "indexed": false,
          "internalType": "bool",
          "name": "approved",
          "type": "bool"
        }
      ],
      "name": "ApprovalForAll",
      "type": "event"
    },
    {
      "anonymous": false,
      "inputs": [
        {
          "indexed": true,
          "internalType": "address",
          "name": "previousOwner",
          "type": "address"
        },
        {
          "indexed": true,
          "internalType": "address",
          "name": "newOwner",
          "type": "address"
        }
      ],
      "name": "OwnershipTransferred",
      "type": "event"
    },
    {
      "anonymous": false,
      "inputs": [
        {
          "indexed": true,
          "internalType": "address",
          "name": "from",
          "type": "address"
        },
        {
          "indexed": true,
          "internalType": "address",
          "name": "to",
          "type": "address"
        },
        {
          "indexed": true,
          "internalType": "uint256",
          "name": "tokenId",
          "type": "uint256"
        }
      ],
      "name": "Transfer",
      "type": "event"
    },
    {
      "inputs": [
        {
          "internalType": "address",
          "name": "to",
          "type": "address"
        },
        {
          "internalType": "uint256",
          "name": "tokenId",
          "type": "uint256"
        }
      ],
      "name": "approve",
      "outputs": [],
      "stateMutability": "nonpayable",
      "type": "function"
    },
    {
      "inputs": [
        {
          "internalType": "address",
          "name": "owner",
          "type": "address"
        }
      ],
      "name": "balanceOf",
      "outputs": [
        {
          "internalType": "uint256",
          "name": "",
          "type": "uint256"
        }
      ],
      "stateMutability": "view",
      "type": "function"
    },
    {
      "inputs": [],
      "name": "baseExtension",
      "outputs": [
        {
          "internalType": "string",
          "name": "",
          "type": "string"
        }
      ],
      "stateMutability": "view",
      "type": "function"
    },
    {
      "inputs": [],
      "name": "baseURI",
      "outputs": [
        {
          "internalType": "string",
          "name": "",
          "type": "string"
        }
      ],
      "stateMutability": "view",
      "type": "function"
    },
    {
      "inputs": [],
      "name": "cost",
      "outputs": [
        {
          "internalType": "uint256",
          "name": "",
          "type": "uint256"
        }
      ],
      "stateMutability": "view",
      "type": "function"
    },
    {
      "inputs": [
        {
          "internalType": "uint256",
          "name": "tokenId",
          "type": "uint256"
        }
      ],
      "name": "getApproved",
      "outputs": [
        {
          "internalType": "address",
          "name": "",
          "type": "address"
        }
      ],
      "stateMutability": "view",
      "type": "function"
    },
    {
      "inputs": [
        {
          "internalType": "address",
          "name": "owner",
          "type": "address"
        },
        {
          "internalType": "address",
          "name": "operator",
          "type": "address"
        }
      ],
      "name": "isApprovedForAll",
      "outputs": [
        {
          "internalType": "bool",
          "name": "",
          "type": "bool"
        }
      ],
      "stateMutability": "view",
      "type": "function"
    },
    {
      "inputs": [],
      "name": "maxMintAmount",
      "outputs": [
        {
          "internalType": "uint256",
          "name": "",
          "type": "uint256"
        }
      ],
      "stateMutability": "view",
      "type": "function"
    },
    {
      "inputs": [],
      "name": "maxSupply",
      "outputs": [
        {
          "internalType": "uint256",
          "name": "",
          "type": "uint256"
        }
      ],
      "stateMutability": "view",
      "type": "function"
    },
    {
      "inputs": [
        {
          "internalType": "address",
          "name": "_to",
          "type": "address"
        },
        {
          "internalType": "uint256",
          "name": "_mintAmount",
          "type": "uint256"
        }
      ],
      "name": "mint",
      "outputs": [],
      "stateMutability": "payable",
      "type": "function"
    },
    {
      "inputs": [
        {
          "internalType": "uint256",
          "name": "_mintId",
          "type": "uint256"
        }
      ],
      "name": "mintById",
      "outputs": [],
      "stateMutability": "payable",
      "type": "function"
    },
    {
      "inputs": [],
      "name": "name",
      "outputs": [
        {
          "internalType": "string",
          "name": "",
          "type": "string"
        }
      ],
      "stateMutability": "view",
      "type": "function"
    },
    {
      "inputs": [],
      "name": "owner",
      "outputs": [
        {
          "internalType": "address",
          "name": "",
          "type": "address"
        }
      ],
      "stateMutability": "view",
      "type": "function"
    },
    {
      "inputs": [
        {
          "internalType": "uint256",
          "name": "tokenId",
          "type": "uint256"
        }
      ],
      "name": "ownerOf",
      "outputs": [
        {
          "internalType": "address",
          "name": "",
          "type": "address"
        }
      ],
      "stateMutability": "view",
      "type": "function"
    },
    {
      "inputs": [
        {
          "internalType": "bool",
          "name": "_state",
          "type": "bool"
        }
      ],
      "name": "pause",
      "outputs": [],
      "stateMutability": "nonpayable",
      "type": "function"
    },
    {
      "inputs": [],
      "name": "paused",
      "outputs": [
        {
          "internalType": "bool",
          "name": "",
          "type": "bool"
        }
      ],
      "stateMutability": "view",
      "type": "function"
    },
    {
      "inputs": [
        {
          "internalType": "address",
          "name": "_user",
          "type": "address"
        }
      ],
      "name": "removeWhitelistUser",
      "outputs": [],
      "stateMutability": "nonpayable",
      "type": "function"
    },
    {
      "inputs": [],
      "name": "renounceOwnership",
      "outputs": [],
      "stateMutability": "nonpayable",
      "type": "function"
    },
    {
      "inputs": [
        {
          "internalType": "address",
          "name": "from",
          "type": "address"
        },
        {
          "internalType": "address",
          "name": "to",
          "type": "address"
        },
        {
          "internalType": "uint256",
          "name": "tokenId",
          "type": "uint256"
        }
      ],
      "name": "safeTransferFrom",
      "outputs": [],
      "stateMutability": "nonpayable",
      "type": "function"
    },
    {
      "inputs": [
        {
          "internalType": "address",
          "name": "from",
          "type": "address"
        },
        {
          "internalType": "address",
          "name": "to",
          "type": "address"
        },
        {
          "internalType": "uint256",
          "name": "tokenId",
          "type": "uint256"
        },
        {
          "internalType": "bytes",
          "name": "_data",
          "type": "bytes"
        }
      ],
      "name": "safeTransferFrom",
      "outputs": [],
      "stateMutability": "nonpayable",
      "type": "function"
    },
    {
      "inputs": [
        {
          "internalType": "address",
          "name": "operator",
          "type": "address"
        },
        {
          "internalType": "bool",
          "name": "approved",
          "type": "bool"
        }
      ],
      "name": "setApprovalForAll",
      "outputs": [],
      "stateMutability": "nonpayable",
      "type": "function"
    },
    {
      "inputs": [
        {
          "internalType": "string",
          "name": "_newBaseExtension",
          "type": "string"
        }
      ],
      "name": "setBaseExtension",
      "outputs": [],
      "stateMutability": "nonpayable",
      "type": "function"
    },
    {
      "inputs": [
        {
          "internalType": "string",
          "name": "_newBaseURI",
          "type": "string"
        }
      ],
      "name": "setBaseURI",
      "outputs": [],
      "stateMutability": "nonpayable",
      "type": "function"
    },
    {
      "inputs": [
        {
          "internalType": "uint256",
          "name": "_newCost",
          "type": "uint256"
        }
      ],
      "name": "setCost",
      "outputs": [],
      "stateMutability": "nonpayable",
      "type": "function"
    },
    {
      "inputs": [
        {
          "internalType": "uint256",
          "name": "_newmaxMintAmount",
          "type": "uint256"
        }
      ],
      "name": "setmaxMintAmount",
      "outputs": [],
      "stateMutability": "nonpayable",
      "type": "function"
    },
    {
      "inputs": [
        {
          "internalType": "bytes4",
          "name": "interfaceId",
          "type": "bytes4"
        }
      ],
      "name": "supportsInterface",
      "outputs": [
        {
          "internalType": "bool",
          "name": "",
          "type": "bool"
        }
      ],
      "stateMutability": "view",
      "type": "function"
    },
    {
      "inputs": [],
      "name": "symbol",
      "outputs": [
        {
          "internalType": "string",
          "name": "",
          "type": "string"
        }
      ],
      "stateMutability": "view",
      "type": "function"
    },
    {
      "inputs": [
        {
          "internalType": "uint256",
          "name": "index",
          "type": "uint256"
        }
      ],
      "name": "tokenByIndex",
      "outputs": [
        {
          "internalType": "uint256",
          "name": "",
          "type": "uint256"
        }
      ],
      "stateMutability": "view",
      "type": "function"
    },
    {
      "inputs": [
        {
          "internalType": "address",
          "name": "owner",
          "type": "address"
        },
        {
          "internalType": "uint256",
          "name": "index",
          "type": "uint256"
        }
      ],
      "name": "tokenOfOwnerByIndex",
      "outputs": [
        {
          "internalType": "uint256",
          "name": "",
          "type": "uint256"
        }
      ],
      "stateMutability": "view",
      "type": "function"
    },
    {
      "inputs": [
        {
          "internalType": "uint256",
          "name": "tokenId",
          "type": "uint256"
        }
      ],
      "name": "tokenURI",
      "outputs": [
        {
          "internalType": "string",
          "name": "",
          "type": "string"
        }
      ],
      "stateMutability": "view",
      "type": "function"
    },
    {
      "inputs": [],
      "name": "totalSupply",
      "outputs": [
        {
          "internalType": "uint256",
          "name": "",
          "type": "uint256"
        }
      ],
      "stateMutability": "view",
      "type": "function"
    },
    {
      "inputs": [
        {
          "internalType": "address",
          "name": "from",
          "type": "address"
        },
        {
          "internalType": "address",
          "name": "to",
          "type": "address"
        },
        {
          "internalType": "uint256",
          "name": "tokenId",
          "type": "uint256"
        }
      ],
      "name": "transferFrom",
      "outputs": [],
      "stateMutability": "nonpayable",
      "type": "function"
    },
    {
      "inputs": [
        {
          "internalType": "address",
          "name": "newOwner",
          "type": "address"
        }
      ],
      "name": "transferOwnership",
      "outputs": [],
      "stateMutability": "nonpayable",
      "type": "function"
    },
    {
      "inputs": [
        {
          "internalType": "address",
          "name": "_owner",
          "type": "address"
        }
      ],
      "name": "walletOfOwner",
      "outputs": [
        {
          "internalType": "uint256[]",
          "name": "",
          "type": "uint256[]"
        }
      ],
      "stateMutability": "view",
      "type": "function"
    },
    {
      "inputs": [
        {
          "internalType": "address",
          "name": "_user",
          "type": "address"
        }
      ],
      "name": "whitelistUser",
      "outputs": [],
      "stateMutability": "nonpayable",
      "type": "function"
    },
    {
      "inputs": [
        {
          "internalType": "address",
          "name": "",
          "type": "address"
        }
      ],
      "name": "whitelisted",
      "outputs": [
        {
          "internalType": "bool",
          "name": "",
          "type": "bool"
        }
      ],
      "stateMutability": "view",
      "type": "function"
    },
    {
      "inputs": [],
      "name": "withdraw",
      "outputs": [],
      "stateMutability": "payable",
      "type": "function"
    }
  ],
  "bytecode": "0x60806040526040518060400160405280600581526020017f2e6a736f6e000000000000000000000000000000000000000000000000000000815250600c90805190602001906200005192919062000e4e565b5066071afd498d0000600d55612710600e55600a600f556000601060006101000a81548160ff021916908315150217905550604051806060016040528060358152602001620060a26035913960129080519060200190620000b492919062000e4e565b506040518060400160405280600c81526020017f53696b6820446f6f646c657300000000000000000000000000000000000000008152506040518060400160405280600481526020017f534b48440000000000000000000000000000000000000000000000000000000081525081600090805190602001906200013992919062000e4e565b5080600190805190602001906200015292919062000e4e565b50505062000175620001696200025760201b60201c565b6200025f60201b60201c565b62000218601280546200018890620012ca565b80601f0160208091040260200160405190810160405280929190818152602001828054620001b690620012ca565b8015620002075780601f10620001db5761010080835404028352916020019162000207565b820191906000526020600020905b815481529060010190602001808311620001e957829003601f168201915b50505050506200032560201b60201c565b6000600190505b6032811162000250576200023a3382620003d060201b60201c565b8080620002479062001300565b9150506200021f565b50620014f0565b600033905090565b6000600a60009054906101000a900473ffffffffffffffffffffffffffffffffffffffff16905081600a60006101000a81548173ffffffffffffffffffffffffffffffffffffffff021916908373ffffffffffffffffffffffffffffffffffffffff1602179055508173ffffffffffffffffffffffffffffffffffffffff168173ffffffffffffffffffffffffffffffffffffffff167f8be0079c531659141344cd1fd0a4f28419497f9722a3daafe3b4186f6b6457e060405160405180910390a35050565b620003356200025760201b60201c565b73ffffffffffffffffffffffffffffffffffffffff166200035b620003f660201b60201c565b73ffffffffffffffffffffffffffffffffffffffff1614620003b4576040517f08c379a0000000000000000000000000000000000000000000000000000000008152600401620003ab9062001143565b60405180910390fd5b80600b9080519060200190620003cc92919062000e4e565b5050565b620003f28282604051806020016040528060008152506200042060201b60201c565b5050565b6000600a60009054906101000a900473ffffffffffffffffffffffffffffffffffffffff16905090565b6200043283836200048e60201b60201c565b6200044760008484846200067460201b60201c565b62000489576040517f08c379a00000000000000000000000000000000000000000000000000000000081526004016200048090620010bb565b60405180910390fd5b505050565b600073ffffffffffffffffffffffffffffffffffffffff168273ffffffffffffffffffffffffffffffffffffffff16141562000501576040517f08c379a0000000000000000000000000000000000000000000000000000000008152600401620004f89062001121565b60405180910390fd5b62000512816200082e60201b60201c565b1562000555576040517f08c379a00000000000000000000000000000000000000000000000000000000081526004016200054c90620010dd565b60405180910390fd5b62000569600083836200089a60201b60201c565b6001600360008473ffffffffffffffffffffffffffffffffffffffff1673ffffffffffffffffffffffffffffffffffffffff1681526020019081526020016000206000828254620005bb919062001192565b92505081905550816002600083815260200190815260200160002060006101000a81548173ffffffffffffffffffffffffffffffffffffffff021916908373ffffffffffffffffffffffffffffffffffffffff160217905550808273ffffffffffffffffffffffffffffffffffffffff16600073ffffffffffffffffffffffffffffffffffffffff167fddf252ad1be2c89b69c2b068fc378daa952ba7f163c4a11628f55a4df523b3ef60405160405180910390a45050565b6000620006a28473ffffffffffffffffffffffffffffffffffffffff16620009e160201b62001e171760201c565b1562000821578373ffffffffffffffffffffffffffffffffffffffff1663150b7a02620006d46200025760201b60201c565b8786866040518563ffffffff1660e01b8152600401620006f8949392919062001067565b602060405180830381600087803b1580156200071357600080fd5b505af19250505080156200074757506040513d601f19601f8201168201806040525081019062000744919062000f15565b60015b620007d0573d80600081146200077a576040519150601f19603f3d011682016040523d82523d6000602084013e6200077f565b606091505b50600081511415620007c8576040517f08c379a0000000000000000000000000000000000000000000000000000000008152600401620007bf90620010bb565b60405180910390fd5b805181602001fd5b63150b7a0260e01b7bffffffffffffffffffffffffffffffffffffffffffffffffffffffff1916817bffffffffffffffffffffffffffffffffffffffffffffffffffffffff19161491505062000826565b600190505b949350505050565b60008073ffffffffffffffffffffffffffffffffffffffff166002600084815260200190815260200160002060009054906101000a900473ffffffffffffffffffffffffffffffffffffffff1673ffffffffffffffffffffffffffffffffffffffff1614159050919050565b620008b2838383620009f460201b62001e2a1760201c565b600073ffffffffffffffffffffffffffffffffffffffff168373ffffffffffffffffffffffffffffffffffffffff161415620008ff57620008f981620009f960201b60201c565b62000947565b8173ffffffffffffffffffffffffffffffffffffffff168373ffffffffffffffffffffffffffffffffffffffff1614620009465762000945838262000a4260201b60201c565b5b5b600073ffffffffffffffffffffffffffffffffffffffff168273ffffffffffffffffffffffffffffffffffffffff16141562000994576200098e8162000bbf60201b60201c565b620009dc565b8273ffffffffffffffffffffffffffffffffffffffff168273ffffffffffffffffffffffffffffffffffffffff1614620009db57620009da828262000d0760201b60201c565b5b5b505050565b600080823b905060008111915050919050565b505050565b6008805490506009600083815260200190815260200160002081905550600881908060018154018082558091505060019003906000526020600020016000909190919091505550565b6000600162000a5c8462000d9360201b6200179d1760201c565b62000a689190620011ef565b905060006007600084815260200190815260200160002054905081811462000b4e576000600660008673ffffffffffffffffffffffffffffffffffffffff1673ffffffffffffffffffffffffffffffffffffffff168152602001908152602001600020600084815260200190815260200160002054905080600660008773ffffffffffffffffffffffffffffffffffffffff1673ffffffffffffffffffffffffffffffffffffffff168152602001908152602001600020600084815260200190815260200160002081905550816007600083815260200190815260200160002081905550505b6007600084815260200190815260200160002060009055600660008573ffffffffffffffffffffffffffffffffffffffff1673ffffffffffffffffffffffffffffffffffffffff16815260200190815260200160002060008381526020019081526020016000206000905550505050565b6000600160088054905062000bd59190620011ef565b905060006009600084815260200190815260200160002054905060006008838154811062000c2c577f4e487b7100000000000000000000000000000000000000000000000000000000600052603260045260246000fd5b90600052602060002001549050806008838154811062000c75577f4e487b7100000000000000000000000000000000000000000000000000000000600052603260045260246000fd5b90600052602060002001819055508160096000838152602001908152602001600020819055506009600085815260200190815260200160002060009055600880548062000ceb577f4e487b7100000000000000000000000000000000000000000000000000000000600052603160045260246000fd5b6001900381819060005260206000200160009055905550505050565b600062000d1f8362000d9360201b6200179d1760201c565b905081600660008573ffffffffffffffffffffffffffffffffffffffff1673ffffffffffffffffffffffffffffffffffffffff168152602001908152602001600020600083815260200190815260200160002081905550806007600084815260200190815260200160002081905550505050565b60008073ffffffffffffffffffffffffffffffffffffffff168273ffffffffffffffffffffffffffffffffffffffff16141562000e07576040517f08c379a000000000000000000000000000000000000000000000000000000000815260040162000dfe90620010ff565b60405180910390fd5b600360008373ffffffffffffffffffffffffffffffffffffffff1673ffffffffffffffffffffffffffffffffffffffff168152602001908152602001600020549050919050565b82805462000e5c90620012ca565b90600052602060002090601f01602090048101928262000e80576000855562000ecc565b82601f1062000e9b57805160ff191683800117855562000ecc565b8280016001018555821562000ecc579182015b8281111562000ecb57825182559160200191906001019062000eae565b5b50905062000edb919062000edf565b5090565b5b8082111562000efa57600081600090555060010162000ee0565b5090565b60008151905062000f0f81620014d6565b92915050565b60006020828403121562000f2857600080fd5b600062000f388482850162000efe565b91505092915050565b62000f4c816200122a565b82525050565b600062000f5f8262001165565b62000f6b818562001170565b935062000f7d81856020860162001294565b62000f8881620013ac565b840191505092915050565b600062000fa260328362001181565b915062000faf82620013bd565b604082019050919050565b600062000fc9601c8362001181565b915062000fd6826200140c565b602082019050919050565b600062000ff0602a8362001181565b915062000ffd8262001435565b604082019050919050565b60006200101760208362001181565b9150620010248262001484565b602082019050919050565b60006200103e60208362001181565b91506200104b82620014ad565b602082019050919050565b62001061816200128a565b82525050565b60006080820190506200107e600083018762000f41565b6200108d602083018662000f41565b6200109c604083018562001056565b8181036060830152620010b0818462000f52565b905095945050505050565b60006020820190508181036000830152620010d68162000f93565b9050919050565b60006020820190508181036000830152620010f88162000fba565b9050919050565b600060208201905081810360008301526200111a8162000fe1565b9050919050565b600060208201905081810360008301526200113c8162001008565b9050919050565b600060208201905081810360008301526200115e816200102f565b9050919050565b600081519050919050565b600082825260208201905092915050565b600082825260208201905092915050565b60006200119f826200128a565b9150620011ac836200128a565b9250827fffffffffffffffffffffffffffffffffffffffffffffffffffffffffffffffff03821115620011e457620011e36200134e565b5b828201905092915050565b6000620011fc826200128a565b915062001209836200128a565b9250828210156200121f576200121e6200134e565b5b828203905092915050565b600062001237826200126a565b9050919050565b60007fffffffff0000000000000000000000000000000000000000000000000000000082169050919050565b600073ffffffffffffffffffffffffffffffffffffffff82169050919050565b6000819050919050565b60005b83811015620012b457808201518184015260208101905062001297565b83811115620012c4576000848401525b50505050565b60006002820490506001821680620012e357607f821691505b60208210811415620012fa57620012f96200137d565b5b50919050565b60006200130d826200128a565b91507fffffffffffffffffffffffffffffffffffffffffffffffffffffffffffffffff8214156200134357620013426200134e565b5b600182019050919050565b7f4e487b7100000000000000000000000000000000000000000000000000000000600052601160045260246000fd5b7f4e487b7100000000000000000000000000000000000000000000000000000000600052602260045260246000fd5b6000601f19601f8301169050919050565b7f4552433732313a207472616e7366657220746f206e6f6e20455243373231526560008201527f63656976657220696d706c656d656e7465720000000000000000000000000000602082015250565b7f4552433732313a20746f6b656e20616c7265616479206d696e74656400000000600082015250565b7f4552433732313a2062616c616e636520717565727920666f7220746865207a6560008201527f726f206164647265737300000000000000000000000000000000000000000000602082015250565b7f4552433732313a206d696e7420746f20746865207a65726f2061646472657373600082015250565b7f4f776e61626c653a2063616c6c6572206973206e6f7420746865206f776e6572600082015250565b620014e1816200123e565b8114620014ed57600080fd5b50565b614ba280620015006000396000f3fe60806040526004361061021a5760003560e01c80634f6ccce71161012357806395d89b41116100ab578063d5abeb011161006f578063d5abeb01146107a6578063d936547e146107d1578063da3ef23f1461080e578063e985e9c514610837578063f2fde38b146108745761021a565b806395d89b41146106c1578063a22cb465146106ec578063b88d4fde14610715578063c66828621461073e578063c87b56dd146107695761021a565b80636c0360eb116100f25780636c0360eb146105ee57806370a0823114610619578063715018a6146106565780637f00c7a61461066d5780638da5cb5b146106965761021a565b80634f6ccce71461052057806355f804b31461055d5780635c975abb146105865780636352211e146105b15761021a565b80632f745c59116101a657806340c10f191161017557806340c10f191461044c57806342842e0e14610468578063438b63001461049157806344a0d68a146104ce5780634a4c560d146104f75761021a565b80632f745c59146103c057806330cc7ae0146103fd5780633c51c82b146104265780633ccfd60b146104425761021a565b8063095ea7b3116101ed578063095ea7b3146102ed57806313faede61461031657806318160ddd14610341578063239c70ae1461036c57806323b872dd146103975761021a565b806301ffc9a71461021f57806302329a291461025c57806306fdde0314610285578063081812fc146102b0575b600080fd5b34801561022b57600080fd5b50610246600480360381019061024191906134c6565b61089d565b6040516102539190613c04565b60405180910390f35b34801561026857600080fd5b50610283600480360381019061027e919061349d565b610917565b005b34801561029157600080fd5b5061029a6109b0565b6040516102a79190613c1f565b60405180910390f35b3480156102bc57600080fd5b506102d760048036038101906102d29190613559565b610a42565b6040516102e49190613b7b565b60405180910390f35b3480156102f957600080fd5b50610314600480360381019061030f9190613461565b610ac7565b005b34801561032257600080fd5b5061032b610bdf565b6040516103389190613f81565b60405180910390f35b34801561034d57600080fd5b50610356610be5565b6040516103639190613f81565b60405180910390f35b34801561037857600080fd5b50610381610bf2565b60405161038e9190613f81565b60405180910390f35b3480156103a357600080fd5b506103be60048036038101906103b9919061335b565b610bf8565b005b3480156103cc57600080fd5b506103e760048036038101906103e29190613461565b610c58565b6040516103f49190613f81565b60405180910390f35b34801561040957600080fd5b50610424600480360381019061041f91906132f6565b610cfd565b005b610440600480360381019061043b9190613559565b610dd4565b005b61044a610f47565b005b61046660048036038101906104619190613461565b611043565b005b34801561047457600080fd5b5061048f600480360381019061048a919061335b565b6112a6565b005b34801561049d57600080fd5b506104b860048036038101906104b391906132f6565b6112c6565b6040516104c59190613be2565b60405180910390f35b3480156104da57600080fd5b506104f560048036038101906104f09190613559565b6113c0565b005b34801561050357600080fd5b5061051e600480360381019061051991906132f6565b611446565b005b34801561052c57600080fd5b5061054760048036038101906105429190613559565b61151d565b6040516105549190613f81565b60405180910390f35b34801561056957600080fd5b50610584600480360381019061057f9190613518565b6115b4565b005b34801561059257600080fd5b5061059b61164a565b6040516105a89190613c04565b60405180910390f35b3480156105bd57600080fd5b506105d860048036038101906105d39190613559565b61165d565b6040516105e59190613b7b565b60405180910390f35b3480156105fa57600080fd5b5061060361170f565b6040516106109190613c1f565b60405180910390f35b34801561062557600080fd5b50610640600480360381019061063b91906132f6565b61179d565b60405161064d9190613f81565b60405180910390f35b34801561066257600080fd5b5061066b611855565b005b34801561067957600080fd5b50610694600480360381019061068f9190613559565b6118dd565b005b3480156106a257600080fd5b506106ab611963565b6040516106b89190613b7b565b60405180910390f35b3480156106cd57600080fd5b506106d661198d565b6040516106e39190613c1f565b60405180910390f35b3480156106f857600080fd5b50610713600480360381019061070e9190613425565b611a1f565b005b34801561072157600080fd5b5061073c600480360381019061073791906133aa565b611a35565b005b34801561074a57600080fd5b50610753611a97565b6040516107609190613c1f565b60405180910390f35b34801561077557600080fd5b50610790600480360381019061078b9190613559565b611b25565b60405161079d9190613c1f565b60405180910390f35b3480156107b257600080fd5b506107bb611bcf565b6040516107c89190613f81565b60405180910390f35b3480156107dd57600080fd5b506107f860048036038101906107f391906132f6565b611bd5565b6040516108059190613c04565b60405180910390f35b34801561081a57600080fd5b5061083560048036038101906108309190613518565b611bf5565b005b34801561084357600080fd5b5061085e6004803603810190610859919061331f565b611c8b565b60405161086b9190613c04565b60405180910390f35b34801561088057600080fd5b5061089b600480360381019061089691906132f6565b611d1f565b005b60007f780e9d63000000000000000000000000000000000000000000000000000000007bffffffffffffffffffffffffffffffffffffffffffffffffffffffff1916827bffffffffffffffffffffffffffffffffffffffffffffffffffffffff19161480610910575061090f82611e2f565b5b9050919050565b61091f611f11565b73ffffffffffffffffffffffffffffffffffffffff1661093d611963565b73ffffffffffffffffffffffffffffffffffffffff1614610993576040517f08c379a000000000000000000000000000000000000000000000000000000000815260040161098a90613e21565b60405180910390fd5b80601060006101000a81548160ff02191690831515021790555050565b6060600080546109bf9061428a565b80601f01602080910402602001604051908101604052809291908181526020018280546109eb9061428a565b8015610a385780601f10610a0d57610100808354040283529160200191610a38565b820191906000526020600020905b815481529060010190602001808311610a1b57829003601f168201915b5050505050905090565b6000610a4d82611f19565b610a8c576040517f08c379a0000000000000000000000000000000000000000000000000000000008152600401610a8390613e01565b60405180910390fd5b6004600083815260200190815260200160002060009054906101000a900473ffffffffffffffffffffffffffffffffffffffff169050919050565b6000610ad28261165d565b90508073ffffffffffffffffffffffffffffffffffffffff168373ffffffffffffffffffffffffffffffffffffffff161415610b43576040517f08c379a0000000000000000000000000000000000000000000000000000000008152600401610b3a90613e81565b60405180910390fd5b8073ffffffffffffffffffffffffffffffffffffffff16610b62611f11565b73ffffffffffffffffffffffffffffffffffffffff161480610b915750610b9081610b8b611f11565b611c8b565b5b610bd0576040517f08c379a0000000000000000000000000000000000000000000000000000000008152600401610bc790613d61565b60405180910390fd5b610bda8383611f85565b505050565b600d5481565b6000600880549050905090565b600f5481565b610c09610c03611f11565b8261203e565b610c48576040517f08c379a0000000000000000000000000000000000000000000000000000000008152600401610c3f90613ee1565b60405180910390fd5b610c5383838361211c565b505050565b6000610c638361179d565b8210610ca4576040517f08c379a0000000000000000000000000000000000000000000000000000000008152600401610c9b90613c61565b60405180910390fd5b600660008473ffffffffffffffffffffffffffffffffffffffff1673ffffffffffffffffffffffffffffffffffffffff168152602001908152602001600020600083815260200190815260200160002054905092915050565b610d05611f11565b73ffffffffffffffffffffffffffffffffffffffff16610d23611963565b73ffffffffffffffffffffffffffffffffffffffff1614610d79576040517f08c379a0000000000000000000000000000000000000000000000000000000008152600401610d7090613e21565b60405180910390fd5b6000601160008373ffffffffffffffffffffffffffffffffffffffff1673ffffffffffffffffffffffffffffffffffffffff16815260200190815260200160002060006101000a81548160ff02191690831515021790555050565b601060009054906101000a900460ff1615610e24576040517f08c379a0000000000000000000000000000000000000000000000000000000008152600401610e1b90613f21565b60405180910390fd5b610e2d81611f19565b15610e6d576040517f08c379a0000000000000000000000000000000000000000000000000000000008152600401610e6490613ce1565b60405180910390fd5b60008111610eb0576040517f08c379a0000000000000000000000000000000000000000000000000000000008152600401610ea790613d81565b60405180910390fd5b600e54811115610ef5576040517f08c379a0000000000000000000000000000000000000000000000000000000008152600401610eec90613f01565b60405180910390fd5b600d54341015610f3a576040517f08c379a0000000000000000000000000000000000000000000000000000000008152600401610f3190613ea1565b60405180910390fd5b610f443382612378565b50565b610f4f611f11565b73ffffffffffffffffffffffffffffffffffffffff16610f6d611963565b73ffffffffffffffffffffffffffffffffffffffff1614610fc3576040517f08c379a0000000000000000000000000000000000000000000000000000000008152600401610fba90613e21565b60405180910390fd5b6000610fcd611963565b73ffffffffffffffffffffffffffffffffffffffff1647604051610ff090613b66565b60006040518083038185875af1925050503d806000811461102d576040519150601f19603f3d011682016040523d82523d6000602084013e611032565b606091505b505090508061104057600080fd5b50565b600061104d610be5565b9050601060009054906101000a900460ff161561109f576040517f08c379a000000000000000000000000000000000000000000000000000000000815260040161109690613f21565b60405180910390fd5b600082116110e2576040517f08c379a00000000000000000000000000000000000000000000000000000000081526004016110d990613ec1565b60405180910390fd5b600f54821115611127576040517f08c379a000000000000000000000000000000000000000000000000000000000815260040161111e90613f61565b60405180910390fd5b600e54828261113691906140bf565b1115611177576040517f08c379a000000000000000000000000000000000000000000000000000000000815260040161116e90613c41565b60405180910390fd5b600d543410156111bc576040517f08c379a00000000000000000000000000000000000000000000000000000000081526004016111b390613ea1565b60405180910390fd5b6111c4611963565b73ffffffffffffffffffffffffffffffffffffffff163373ffffffffffffffffffffffffffffffffffffffff161461126a5760011515601160003373ffffffffffffffffffffffffffffffffffffffff1673ffffffffffffffffffffffffffffffffffffffff16815260200190815260200160002060009054906101000a900460ff161515146112695781600d5461125c9190614146565b34101561126857600080fd5b5b5b6000600190505b8281116112a05761128d84828461128891906140bf565b612378565b8080611298906142ed565b915050611271565b50505050565b6112c183838360405180602001604052806000815250611a35565b505050565b606060006112d38361179d565b905060008167ffffffffffffffff811115611317577f4e487b7100000000000000000000000000000000000000000000000000000000600052604160045260246000fd5b6040519080825280602002602001820160405280156113455781602001602082028036833780820191505090505b50905060005b828110156113b55761135d8582610c58565b828281518110611396577f4e487b7100000000000000000000000000000000000000000000000000000000600052603260045260246000fd5b60200260200101818152505080806113ad906142ed565b91505061134b565b508092505050919050565b6113c8611f11565b73ffffffffffffffffffffffffffffffffffffffff166113e6611963565b73ffffffffffffffffffffffffffffffffffffffff161461143c576040517f08c379a000000000000000000000000000000000000000000000000000000000815260040161143390613e21565b60405180910390fd5b80600d8190555050565b61144e611f11565b73ffffffffffffffffffffffffffffffffffffffff1661146c611963565b73ffffffffffffffffffffffffffffffffffffffff16146114c2576040517f08c379a00000000000000000000000000000000000000000000000000000000081526004016114b990613e21565b60405180910390fd5b6001601160008373ffffffffffffffffffffffffffffffffffffffff1673ffffffffffffffffffffffffffffffffffffffff16815260200190815260200160002060006101000a81548160ff02191690831515021790555050565b6000611527610be5565b8210611568576040517f08c379a000000000000000000000000000000000000000000000000000000000815260040161155f90613f41565b60405180910390fd5b600882815481106115a2577f4e487b7100000000000000000000000000000000000000000000000000000000600052603260045260246000fd5b90600052602060002001549050919050565b6115bc611f11565b73ffffffffffffffffffffffffffffffffffffffff166115da611963565b73ffffffffffffffffffffffffffffffffffffffff1614611630576040517f08c379a000000000000000000000000000000000000000000000000000000000815260040161162790613e21565b60405180910390fd5b80600b908051906020019061164692919061311a565b5050565b601060009054906101000a900460ff1681565b6000806002600084815260200190815260200160002060009054906101000a900473ffffffffffffffffffffffffffffffffffffffff169050600073ffffffffffffffffffffffffffffffffffffffff168173ffffffffffffffffffffffffffffffffffffffff161415611706576040517f08c379a00000000000000000000000000000000000000000000000000000000081526004016116fd90613dc1565b60405180910390fd5b80915050919050565b600b805461171c9061428a565b80601f01602080910402602001604051908101604052809291908181526020018280546117489061428a565b80156117955780601f1061176a57610100808354040283529160200191611795565b820191906000526020600020905b81548152906001019060200180831161177857829003601f168201915b505050505081565b60008073ffffffffffffffffffffffffffffffffffffffff168273ffffffffffffffffffffffffffffffffffffffff16141561180e576040517f08c379a000000000000000000000000000000000000000000000000000000000815260040161180590613da1565b60405180910390fd5b600360008373ffffffffffffffffffffffffffffffffffffffff1673ffffffffffffffffffffffffffffffffffffffff168152602001908152602001600020549050919050565b61185d611f11565b73ffffffffffffffffffffffffffffffffffffffff1661187b611963565b73ffffffffffffffffffffffffffffffffffffffff16146118d1576040517f08c379a00000000000000000000000000000000000000000000000000000000081526004016118c890613e21565b60405180910390fd5b6118db6000612396565b565b6118e5611f11565b73ffffffffffffffffffffffffffffffffffffffff16611903611963565b73ffffffffffffffffffffffffffffffffffffffff1614611959576040517f08c379a000000000000000000000000000000000000000000000000000000000815260040161195090613e21565b60405180910390fd5b80600f8190555050565b6000600a60009054906101000a900473ffffffffffffffffffffffffffffffffffffffff16905090565b60606001805461199c9061428a565b80601f01602080910402602001604051908101604052809291908181526020018280546119c89061428a565b8015611a155780601f106119ea57610100808354040283529160200191611a15565b820191906000526020600020905b8154815290600101906020018083116119f857829003601f168201915b5050505050905090565b611a31611a2a611f11565b838361245c565b5050565b611a46611a40611f11565b8361203e565b611a85576040517f08c379a0000000000000000000000000000000000000000000000000000000008152600401611a7c90613ee1565b60405180910390fd5b611a91848484846125c9565b50505050565b600c8054611aa49061428a565b80601f0160208091040260200160405190810160405280929190818152602001828054611ad09061428a565b8015611b1d5780601f10611af257610100808354040283529160200191611b1d565b820191906000526020600020905b815481529060010190602001808311611b0057829003601f168201915b505050505081565b6060611b3082611f19565b611b6f576040517f08c379a0000000000000000000000000000000000000000000000000000000008152600401611b6690613e61565b60405180910390fd5b6000611b79612625565b90506000815111611b995760405180602001604052806000815250611bc7565b80611ba3846126b7565b600c604051602001611bb793929190613b2a565b6040516020818303038152906040525b915050919050565b600e5481565b60116020528060005260406000206000915054906101000a900460ff1681565b611bfd611f11565b73ffffffffffffffffffffffffffffffffffffffff16611c1b611963565b73ffffffffffffffffffffffffffffffffffffffff1614611c71576040517f08c379a0000000000000000000000000000000000000000000000000000000008152600401611c6890613e21565b60405180910390fd5b80600c9080519060200190611c8792919061311a565b5050565b6000600560008473ffffffffffffffffffffffffffffffffffffffff1673ffffffffffffffffffffffffffffffffffffffff16815260200190815260200160002060008373ffffffffffffffffffffffffffffffffffffffff1673ffffffffffffffffffffffffffffffffffffffff16815260200190815260200160002060009054906101000a900460ff16905092915050565b611d27611f11565b73ffffffffffffffffffffffffffffffffffffffff16611d45611963565b73ffffffffffffffffffffffffffffffffffffffff1614611d9b576040517f08c379a0000000000000000000000000000000000000000000000000000000008152600401611d9290613e21565b60405180910390fd5b600073ffffffffffffffffffffffffffffffffffffffff168173ffffffffffffffffffffffffffffffffffffffff161415611e0b576040517f08c379a0000000000000000000000000000000000000000000000000000000008152600401611e0290613ca1565b60405180910390fd5b611e1481612396565b50565b600080823b905060008111915050919050565b505050565b60007f80ac58cd000000000000000000000000000000000000000000000000000000007bffffffffffffffffffffffffffffffffffffffffffffffffffffffff1916827bffffffffffffffffffffffffffffffffffffffffffffffffffffffff19161480611efa57507f5b5e139f000000000000000000000000000000000000000000000000000000007bffffffffffffffffffffffffffffffffffffffffffffffffffffffff1916827bffffffffffffffffffffffffffffffffffffffffffffffffffffffff1916145b80611f0a5750611f0982612864565b5b9050919050565b600033905090565b60008073ffffffffffffffffffffffffffffffffffffffff166002600084815260200190815260200160002060009054906101000a900473ffffffffffffffffffffffffffffffffffffffff1673ffffffffffffffffffffffffffffffffffffffff1614159050919050565b816004600083815260200190815260200160002060006101000a81548173ffffffffffffffffffffffffffffffffffffffff021916908373ffffffffffffffffffffffffffffffffffffffff160217905550808273ffffffffffffffffffffffffffffffffffffffff16611ff88361165d565b73ffffffffffffffffffffffffffffffffffffffff167f8c5be1e5ebec7d5bd14f71427d1e84f3dd0314c0f7b2291e5b200ac8c7c3b92560405160405180910390a45050565b600061204982611f19565b612088576040517f08c379a000000000000000000000000000000000000000000000000000000000815260040161207f90613d41565b60405180910390fd5b60006120938361165d565b90508073ffffffffffffffffffffffffffffffffffffffff168473ffffffffffffffffffffffffffffffffffffffff16148061210257508373ffffffffffffffffffffffffffffffffffffffff166120ea84610a42565b73ffffffffffffffffffffffffffffffffffffffff16145b8061211357506121128185611c8b565b5b91505092915050565b8273ffffffffffffffffffffffffffffffffffffffff1661213c8261165d565b73ffffffffffffffffffffffffffffffffffffffff1614612192576040517f08c379a000000000000000000000000000000000000000000000000000000000815260040161218990613e41565b60405180910390fd5b600073ffffffffffffffffffffffffffffffffffffffff168273ffffffffffffffffffffffffffffffffffffffff161415612202576040517f08c379a00000000000000000000000000000000000000000000000000000000081526004016121f990613d01565b60405180910390fd5b61220d8383836128ce565b612218600082611f85565b6001600360008573ffffffffffffffffffffffffffffffffffffffff1673ffffffffffffffffffffffffffffffffffffffff168152602001908152602001600020600082825461226891906141a0565b925050819055506001600360008473ffffffffffffffffffffffffffffffffffffffff1673ffffffffffffffffffffffffffffffffffffffff16815260200190815260200160002060008282546122bf91906140bf565b92505081905550816002600083815260200190815260200160002060006101000a81548173ffffffffffffffffffffffffffffffffffffffff021916908373ffffffffffffffffffffffffffffffffffffffff160217905550808273ffffffffffffffffffffffffffffffffffffffff168473ffffffffffffffffffffffffffffffffffffffff167fddf252ad1be2c89b69c2b068fc378daa952ba7f163c4a11628f55a4df523b3ef60405160405180910390a4505050565b6123928282604051806020016040528060008152506129e2565b5050565b6000600a60009054906101000a900473ffffffffffffffffffffffffffffffffffffffff16905081600a60006101000a81548173ffffffffffffffffffffffffffffffffffffffff021916908373ffffffffffffffffffffffffffffffffffffffff1602179055508173ffffffffffffffffffffffffffffffffffffffff168173ffffffffffffffffffffffffffffffffffffffff167f8be0079c531659141344cd1fd0a4f28419497f9722a3daafe3b4186f6b6457e060405160405180910390a35050565b8173ffffffffffffffffffffffffffffffffffffffff168373ffffffffffffffffffffffffffffffffffffffff1614156124cb576040517f08c379a00000000000000000000000000000000000000000000000000000000081526004016124c290613d21565b60405180910390fd5b80600560008573ffffffffffffffffffffffffffffffffffffffff1673ffffffffffffffffffffffffffffffffffffffff16815260200190815260200160002060008473ffffffffffffffffffffffffffffffffffffffff1673ffffffffffffffffffffffffffffffffffffffff16815260200190815260200160002060006101000a81548160ff0219169083151502179055508173ffffffffffffffffffffffffffffffffffffffff168373ffffffffffffffffffffffffffffffffffffffff167f17307eab39ab6107e8899845ad3d59bd9653f200f220920489ca2b5937696c31836040516125bc9190613c04565b60405180910390a3505050565b6125d484848461211c565b6125e084848484612a3d565b61261f576040517f08c379a000000000000000000000000000000000000000000000000000000000815260040161261690613c81565b60405180910390fd5b50505050565b6060600b80546126349061428a565b80601f01602080910402602001604051908101604052809291908181526020018280546126609061428a565b80156126ad5780601f10612682576101008083540402835291602001916126ad565b820191906000526020600020905b81548152906001019060200180831161269057829003601f168201915b5050505050905090565b606060008214156126ff576040518060400160405280600181526020017f3000000000000000000000000000000000000000000000000000000000000000815250905061285f565b600082905060005b6000821461273157808061271a906142ed565b915050600a8261272a9190614115565b9150612707565b60008167ffffffffffffffff811115612773577f4e487b7100000000000000000000000000000000000000000000000000000000600052604160045260246000fd5b6040519080825280601f01601f1916602001820160405280156127a55781602001600182028036833780820191505090505b5090505b60008514612858576001826127be91906141a0565b9150600a856127cd9190614336565b60306127d991906140bf565b60f81b818381518110612815577f4e487b7100000000000000000000000000000000000000000000000000000000600052603260045260246000fd5b60200101907effffffffffffffffffffffffffffffffffffffffffffffffffffffffffffff1916908160001a905350600a856128519190614115565b94506127a9565b8093505050505b919050565b60007f01ffc9a7000000000000000000000000000000000000000000000000000000007bffffffffffffffffffffffffffffffffffffffffffffffffffffffff1916827bffffffffffffffffffffffffffffffffffffffffffffffffffffffff1916149050919050565b6128d9838383611e2a565b600073ffffffffffffffffffffffffffffffffffffffff168373ffffffffffffffffffffffffffffffffffffffff16141561291c5761291781612bd4565b61295b565b8173ffffffffffffffffffffffffffffffffffffffff168373ffffffffffffffffffffffffffffffffffffffff161461295a576129598382612c1d565b5b5b600073ffffffffffffffffffffffffffffffffffffffff168273ffffffffffffffffffffffffffffffffffffffff16141561299e5761299981612d8a565b6129dd565b8273ffffffffffffffffffffffffffffffffffffffff168273ffffffffffffffffffffffffffffffffffffffff16146129dc576129db8282612ecd565b5b5b505050565b6129ec8383612f4c565b6129f96000848484612a3d565b612a38576040517f08c379a0000000000000000000000000000000000000000000000000000000008152600401612a2f90613c81565b60405180910390fd5b505050565b6000612a5e8473ffffffffffffffffffffffffffffffffffffffff16611e17565b15612bc7578373ffffffffffffffffffffffffffffffffffffffff1663150b7a02612a87611f11565b8786866040518563ffffffff1660e01b8152600401612aa99493929190613b96565b602060405180830381600087803b158015612ac357600080fd5b505af1925050508015612af457506040513d601f19601f82011682018060405250810190612af191906134ef565b60015b612b77573d8060008114612b24576040519150601f19603f3d011682016040523d82523d6000602084013e612b29565b606091505b50600081511415612b6f576040517f08c379a0000000000000000000000000000000000000000000000000000000008152600401612b6690613c81565b60405180910390fd5b805181602001fd5b63150b7a0260e01b7bffffffffffffffffffffffffffffffffffffffffffffffffffffffff1916817bffffffffffffffffffffffffffffffffffffffffffffffffffffffff191614915050612bcc565b600190505b949350505050565b6008805490506009600083815260200190815260200160002081905550600881908060018154018082558091505060019003906000526020600020016000909190919091505550565b60006001612c2a8461179d565b612c3491906141a0565b9050600060076000848152602001908152602001600020549050818114612d19576000600660008673ffffffffffffffffffffffffffffffffffffffff1673ffffffffffffffffffffffffffffffffffffffff168152602001908152602001600020600084815260200190815260200160002054905080600660008773ffffffffffffffffffffffffffffffffffffffff1673ffffffffffffffffffffffffffffffffffffffff168152602001908152602001600020600084815260200190815260200160002081905550816007600083815260200190815260200160002081905550505b6007600084815260200190815260200160002060009055600660008573ffffffffffffffffffffffffffffffffffffffff1673ffffffffffffffffffffffffffffffffffffffff16815260200190815260200160002060008381526020019081526020016000206000905550505050565b60006001600880549050612d9e91906141a0565b9050600060096000848152602001908152602001600020549050600060088381548110612df4577f4e487b7100000000000000000000000000000000000000000000000000000000600052603260045260246000fd5b906000526020600020015490508060088381548110612e3c577f4e487b7100000000000000000000000000000000000000000000000000000000600052603260045260246000fd5b906000526020600020018190555081600960008381526020019081526020016000208190555060096000858152602001908152602001600020600090556008805480612eb1577f4e487b7100000000000000000000000000000000000000000000000000000000600052603160045260246000fd5b6001900381819060005260206000200160009055905550505050565b6000612ed88361179d565b905081600660008573ffffffffffffffffffffffffffffffffffffffff1673ffffffffffffffffffffffffffffffffffffffff168152602001908152602001600020600083815260200190815260200160002081905550806007600084815260200190815260200160002081905550505050565b600073ffffffffffffffffffffffffffffffffffffffff168273ffffffffffffffffffffffffffffffffffffffff161415612fbc576040517f08c379a0000000000000000000000000000000000000000000000000000000008152600401612fb390613de1565b60405180910390fd5b612fc581611f19565b15613005576040517f08c379a0000000000000000000000000000000000000000000000000000000008152600401612ffc90613cc1565b60405180910390fd5b613011600083836128ce565b6001600360008473ffffffffffffffffffffffffffffffffffffffff1673ffffffffffffffffffffffffffffffffffffffff168152602001908152602001600020600082825461306191906140bf565b92505081905550816002600083815260200190815260200160002060006101000a81548173ffffffffffffffffffffffffffffffffffffffff021916908373ffffffffffffffffffffffffffffffffffffffff160217905550808273ffffffffffffffffffffffffffffffffffffffff16600073ffffffffffffffffffffffffffffffffffffffff167fddf252ad1be2c89b69c2b068fc378daa952ba7f163c4a11628f55a4df523b3ef60405160405180910390a45050565b8280546131269061428a565b90600052602060002090601f016020900481019282613148576000855561318f565b82601f1061316157805160ff191683800117855561318f565b8280016001018555821561318f579182015b8281111561318e578251825591602001919060010190613173565b5b50905061319c91906131a0565b5090565b5b808211156131b95760008160009055506001016131a1565b5090565b60006131d06131cb84613fc1565b613f9c565b9050828152602081018484840111156131e857600080fd5b6131f3848285614248565b509392505050565b600061320e61320984613ff2565b613f9c565b90508281526020810184848401111561322657600080fd5b613231848285614248565b509392505050565b60008135905061324881614b10565b92915050565b60008135905061325d81614b27565b92915050565b60008135905061327281614b3e565b92915050565b60008151905061328781614b3e565b92915050565b600082601f83011261329e57600080fd5b81356132ae8482602086016131bd565b91505092915050565b600082601f8301126132c857600080fd5b81356132d88482602086016131fb565b91505092915050565b6000813590506132f081614b55565b92915050565b60006020828403121561330857600080fd5b600061331684828501613239565b91505092915050565b6000806040838503121561333257600080fd5b600061334085828601613239565b925050602061335185828601613239565b9150509250929050565b60008060006060848603121561337057600080fd5b600061337e86828701613239565b935050602061338f86828701613239565b92505060406133a0868287016132e1565b9150509250925092565b600080600080608085870312156133c057600080fd5b60006133ce87828801613239565b94505060206133df87828801613239565b93505060406133f0878288016132e1565b925050606085013567ffffffffffffffff81111561340d57600080fd5b6134198782880161328d565b91505092959194509250565b6000806040838503121561343857600080fd5b600061344685828601613239565b92505060206134578582860161324e565b9150509250929050565b6000806040838503121561347457600080fd5b600061348285828601613239565b9250506020613493858286016132e1565b9150509250929050565b6000602082840312156134af57600080fd5b60006134bd8482850161324e565b91505092915050565b6000602082840312156134d857600080fd5b60006134e684828501613263565b91505092915050565b60006020828403121561350157600080fd5b600061350f84828501613278565b91505092915050565b60006020828403121561352a57600080fd5b600082013567ffffffffffffffff81111561354457600080fd5b613550848285016132b7565b91505092915050565b60006020828403121561356b57600080fd5b6000613579848285016132e1565b91505092915050565b600061358e8383613b0c565b60208301905092915050565b6135a3816141d4565b82525050565b60006135b482614048565b6135be8185614076565b93506135c983614023565b8060005b838110156135fa5781516135e18882613582565b97506135ec83614069565b9250506001810190506135cd565b5085935050505092915050565b613610816141e6565b82525050565b600061362182614053565b61362b8185614087565b935061363b818560208601614257565b61364481614423565b840191505092915050565b600061365a8261405e565b61366481856140a3565b9350613674818560208601614257565b61367d81614423565b840191505092915050565b60006136938261405e565b61369d81856140b4565b93506136ad818560208601614257565b80840191505092915050565b600081546136c68161428a565b6136d081866140b4565b945060018216600081146136eb57600181146136fc5761372f565b60ff1983168652818601935061372f565b61370585614033565b60005b8381101561372757815481890152600182019150602081019050613708565b838801955050505b50505092915050565b60006137456022836140a3565b915061375082614434565b604082019050919050565b6000613768602b836140a3565b915061377382614483565b604082019050919050565b600061378b6032836140a3565b9150613796826144d2565b604082019050919050565b60006137ae6026836140a3565b91506137b982614521565b604082019050919050565b60006137d1601c836140a3565b91506137dc82614570565b602082019050919050565b60006137f46014836140a3565b91506137ff82614599565b602082019050919050565b60006138176024836140a3565b9150613822826145c2565b604082019050919050565b600061383a6019836140a3565b915061384582614611565b602082019050919050565b600061385d602c836140a3565b91506138688261463a565b604082019050919050565b60006138806038836140a3565b915061388b82614689565b604082019050919050565b60006138a36013836140a3565b91506138ae826146d8565b602082019050919050565b60006138c6602a836140a3565b91506138d182614701565b604082019050919050565b60006138e96029836140a3565b91506138f482614750565b604082019050919050565b600061390c6020836140a3565b91506139178261479f565b602082019050919050565b600061392f602c836140a3565b915061393a826147c8565b604082019050919050565b60006139526020836140a3565b915061395d82614817565b602082019050919050565b60006139756029836140a3565b915061398082614840565b604082019050919050565b6000613998602f836140a3565b91506139a38261488f565b604082019050919050565b60006139bb6021836140a3565b91506139c6826148de565b604082019050919050565b60006139de6016836140a3565b91506139e98261492d565b602082019050919050565b6000613a01600083614098565b9150613a0c82614956565b600082019050919050565b6000613a24601a836140a3565b9150613a2f82614959565b602082019050919050565b6000613a476031836140a3565b9150613a5282614982565b604082019050919050565b6000613a6a6029836140a3565b9150613a75826149d1565b604082019050919050565b6000613a8d601d836140a3565b9150613a9882614a20565b602082019050919050565b6000613ab0602c836140a3565b9150613abb82614a49565b604082019050919050565b6000613ad3603c836140a3565b9150613ade82614a98565b604082019050919050565b6000613af66001836140b4565b9150613b0182614ae7565b600182019050919050565b613b158161423e565b82525050565b613b248161423e565b82525050565b6000613b368286613688565b9150613b4182613ae9565b9150613b4d8285613688565b9150613b5982846136b9565b9150819050949350505050565b6000613b71826139f4565b9150819050919050565b6000602082019050613b90600083018461359a565b92915050565b6000608082019050613bab600083018761359a565b613bb8602083018661359a565b613bc56040830185613b1b565b8181036060830152613bd78184613616565b905095945050505050565b60006020820190508181036000830152613bfc81846135a9565b905092915050565b6000602082019050613c196000830184613607565b92915050565b60006020820190508181036000830152613c39818461364f565b905092915050565b60006020820190508181036000830152613c5a81613738565b9050919050565b60006020820190508181036000830152613c7a8161375b565b9050919050565b60006020820190508181036000830152613c9a8161377e565b9050919050565b60006020820190508181036000830152613cba816137a1565b9050919050565b60006020820190508181036000830152613cda816137c4565b9050919050565b60006020820190508181036000830152613cfa816137e7565b9050919050565b60006020820190508181036000830152613d1a8161380a565b9050919050565b60006020820190508181036000830152613d3a8161382d565b9050919050565b60006020820190508181036000830152613d5a81613850565b9050919050565b60006020820190508181036000830152613d7a81613873565b9050919050565b60006020820190508181036000830152613d9a81613896565b9050919050565b60006020820190508181036000830152613dba816138b9565b9050919050565b60006020820190508181036000830152613dda816138dc565b9050919050565b60006020820190508181036000830152613dfa816138ff565b9050919050565b60006020820190508181036000830152613e1a81613922565b9050919050565b60006020820190508181036000830152613e3a81613945565b9050919050565b60006020820190508181036000830152613e5a81613968565b9050919050565b60006020820190508181036000830152613e7a8161398b565b9050919050565b60006020820190508181036000830152613e9a816139ae565b9050919050565b60006020820190508181036000830152613eba816139d1565b9050919050565b60006020820190508181036000830152613eda81613a17565b9050919050565b60006020820190508181036000830152613efa81613a3a565b9050919050565b60006020820190508181036000830152613f1a81613a5d565b9050919050565b60006020820190508181036000830152613f3a81613a80565b9050919050565b60006020820190508181036000830152613f5a81613aa3565b9050919050565b60006020820190508181036000830152613f7a81613ac6565b9050919050565b6000602082019050613f966000830184613b1b565b92915050565b6000613fa6613fb7565b9050613fb282826142bc565b919050565b6000604051905090565b600067ffffffffffffffff821115613fdc57613fdb6143f4565b5b613fe582614423565b9050602081019050919050565b600067ffffffffffffffff82111561400d5761400c6143f4565b5b61401682614423565b9050602081019050919050565b6000819050602082019050919050565b60008190508160005260206000209050919050565b600081519050919050565b600081519050919050565b600081519050919050565b6000602082019050919050565b600082825260208201905092915050565b600082825260208201905092915050565b600081905092915050565b600082825260208201905092915050565b600081905092915050565b60006140ca8261423e565b91506140d58361423e565b9250827fffffffffffffffffffffffffffffffffffffffffffffffffffffffffffffffff0382111561410a57614109614367565b5b828201905092915050565b60006141208261423e565b915061412b8361423e565b92508261413b5761413a614396565b5b828204905092915050565b60006141518261423e565b915061415c8361423e565b9250817fffffffffffffffffffffffffffffffffffffffffffffffffffffffffffffffff048311821515161561419557614194614367565b5b828202905092915050565b60006141ab8261423e565b91506141b68361423e565b9250828210156141c9576141c8614367565b5b828203905092915050565b60006141df8261421e565b9050919050565b60008115159050919050565b60007fffffffff0000000000000000000000000000000000000000000000000000000082169050919050565b600073ffffffffffffffffffffffffffffffffffffffff82169050919050565b6000819050919050565b82818337600083830152505050565b60005b8381101561427557808201518184015260208101905061425a565b83811115614284576000848401525b50505050565b600060028204905060018216806142a257607f821691505b602082108114156142b6576142b56143c5565b5b50919050565b6142c582614423565b810181811067ffffffffffffffff821117156142e4576142e36143f4565b5b80604052505050565b60006142f88261423e565b91507fffffffffffffffffffffffffffffffffffffffffffffffffffffffffffffffff82141561432b5761432a614367565b5b600182019050919050565b60006143418261423e565b915061434c8361423e565b92508261435c5761435b614396565b5b828206905092915050565b7f4e487b7100000000000000000000000000000000000000000000000000000000600052601160045260246000fd5b7f4e487b7100000000000000000000000000000000000000000000000000000000600052601260045260246000fd5b7f4e487b7100000000000000000000000000000000000000000000000000000000600052602260045260246000fd5b7f4e487b7100000000000000000000000000000000000000000000000000000000600052604160045260246000fd5b6000601f19601f8301169050919050565b7f4e6f7420656e6f75676820746f6b656e7320696e2074686520636f6e7472616360008201527f742e000000000000000000000000000000000000000000000000000000000000602082015250565b7f455243373231456e756d657261626c653a206f776e657220696e646578206f7560008201527f74206f6620626f756e6473000000000000000000000000000000000000000000602082015250565b7f4552433732313a207472616e7366657220746f206e6f6e20455243373231526560008201527f63656976657220696d706c656d656e7465720000000000000000000000000000602082015250565b7f4f776e61626c653a206e6577206f776e657220697320746865207a65726f206160008201527f6464726573730000000000000000000000000000000000000000000000000000602082015250565b7f4552433732313a20746f6b656e20616c7265616479206d696e74656400000000600082015250565b7f546f6b656e20616c726561647920657869737473000000000000000000000000600082015250565b7f4552433732313a207472616e7366657220746f20746865207a65726f2061646460008201527f7265737300000000000000000000000000000000000000000000000000000000602082015250565b7f4552433732313a20617070726f766520746f2063616c6c657200000000000000600082015250565b7f4552433732313a206f70657261746f7220717565727920666f72206e6f6e657860008201527f697374656e7420746f6b656e0000000000000000000000000000000000000000602082015250565b7f4552433732313a20617070726f76652063616c6c6572206973206e6f74206f7760008201527f6e6572206e6f7220617070726f76656420666f7220616c6c0000000000000000602082015250565b7f4d696e742049642063616e6e6f74206265203000000000000000000000000000600082015250565b7f4552433732313a2062616c616e636520717565727920666f7220746865207a6560008201527f726f206164647265737300000000000000000000000000000000000000000000602082015250565b7f4552433732313a206f776e657220717565727920666f72206e6f6e657869737460008201527f656e7420746f6b656e0000000000000000000000000000000000000000000000602082015250565b7f4552433732313a206d696e7420746f20746865207a65726f2061646472657373600082015250565b7f4552433732313a20617070726f76656420717565727920666f72206e6f6e657860008201527f697374656e7420746f6b656e0000000000000000000000000000000000000000602082015250565b7f4f776e61626c653a2063616c6c6572206973206e6f7420746865206f776e6572600082015250565b7f4552433732313a207472616e73666572206f6620746f6b656e2074686174206960008201527f73206e6f74206f776e0000000000000000000000000000000000000000000000602082015250565b7f4552433732314d657461646174613a2055524920717565727920666f72206e6f60008201527f6e6578697374656e7420746f6b656e0000000000000000000000000000000000602082015250565b7f4552433732313a20617070726f76616c20746f2063757272656e74206f776e6560008201527f7200000000000000000000000000000000000000000000000000000000000000602082015250565b7f4e6f7420656e6f7567682065746865722073656e742100000000000000000000600082015250565b50565b7f4d696e7420616d6f756e74206973206c657373207468616e2030000000000000600082015250565b7f4552433732313a207472616e736665722063616c6c6572206973206e6f74206f60008201527f776e6572206e6f7220617070726f766564000000000000000000000000000000602082015250565b7f4d696e742049642063616e6e6f742062652067726561746572207468616e204d60008201527f617820737570706c790000000000000000000000000000000000000000000000602082015250565b7f436f6e747261637420697320706175736564207269676874206e6f7721000000600082015250565b7f455243373231456e756d657261626c653a20676c6f62616c20696e646578206f60008201527f7574206f6620626f756e64730000000000000000000000000000000000000000602082015250565b7f4d696e7420616d6f756e742069732067726561746572207468616e207468652060008201527f6d6178206d696e7420616d6f756e74206f6620612077616c6c65742e00000000602082015250565b7f2f00000000000000000000000000000000000000000000000000000000000000600082015250565b614b19816141d4565b8114614b2457600080fd5b50565b614b30816141e6565b8114614b3b57600080fd5b50565b614b47816141f2565b8114614b5257600080fd5b50565b614b5e8161423e565b8114614b6957600080fd5b5056fea264697066735822122080837728f6d64118894b57a00248b7618a3ce86181b0e0f7978b3578dadf8ab064736f6c63430008040033697066733a2f2f516d574770385533386b545a58456739686364337351684d5235424d3554566d6f37725062394d38776b6e4a5246",
  "linkReferences": {},
  "deployedLinkReferences": {}
}